{
  "contractName": "Payment",
  "abi": [
    {
      "inputs": [
        {
          "internalType": "uint256",
          "name": "",
          "type": "uint256"
        },
        {
          "internalType": "uint256",
          "name": "",
          "type": "uint256"
        }
      ],
      "name": "accounts",
      "outputs": [
        {
          "internalType": "uint256",
          "name": "user_id_1",
          "type": "uint256"
        },
        {
          "internalType": "uint256",
          "name": "user_id_2",
          "type": "uint256"
        },
        {
          "internalType": "uint256",
          "name": "balance_1",
          "type": "uint256"
        },
        {
          "internalType": "uint256",
          "name": "balance_2",
          "type": "uint256"
        }
      ],
      "stateMutability": "view",
      "type": "function",
      "constant": true
    },
    {
      "inputs": [
        {
          "internalType": "uint256",
          "name": "",
          "type": "uint256"
        },
        {
          "internalType": "uint256",
          "name": "",
          "type": "uint256"
        }
      ],
      "name": "adjList",
      "outputs": [
        {
          "internalType": "uint256",
          "name": "",
          "type": "uint256"
        }
      ],
      "stateMutability": "view",
      "type": "function",
      "constant": true
    },
    {
      "inputs": [
        {
          "internalType": "uint256",
          "name": "",
          "type": "uint256"
        }
      ],
      "name": "userIDs",
      "outputs": [
        {
          "internalType": "uint256",
          "name": "",
          "type": "uint256"
        }
      ],
      "stateMutability": "view",
      "type": "function",
      "constant": true
    },
    {
      "inputs": [
        {
          "internalType": "uint256",
          "name": "",
          "type": "uint256"
        }
      ],
      "name": "users",
      "outputs": [
        {
          "internalType": "string",
          "name": "name",
          "type": "string"
        },
        {
          "internalType": "bool",
          "name": "exists",
          "type": "bool"
        }
      ],
      "stateMutability": "view",
      "type": "function",
      "constant": true
    },
    {
      "inputs": [
        {
          "internalType": "uint256",
          "name": "user_id",
          "type": "uint256"
        },
        {
          "internalType": "string",
          "name": "user_name",
          "type": "string"
        }
      ],
      "name": "registerUser",
      "outputs": [],
      "stateMutability": "nonpayable",
      "type": "function"
    },
    {
      "inputs": [
        {
          "internalType": "uint256",
          "name": "user_id_1",
          "type": "uint256"
        },
        {
          "internalType": "uint256",
          "name": "user_id_2",
          "type": "uint256"
        },
        {
          "internalType": "uint256",
          "name": "amount",
          "type": "uint256"
        }
      ],
      "name": "createAcc",
      "outputs": [],
      "stateMutability": "nonpayable",
      "type": "function"
    },
    {
      "inputs": [
        {
          "internalType": "uint256",
          "name": "start",
          "type": "uint256"
        },
        {
          "internalType": "uint256",
          "name": "end",
          "type": "uint256"
        }
      ],
      "name": "dfs",
      "outputs": [
        {
          "internalType": "uint256[]",
          "name": "",
          "type": "uint256[]"
        }
      ],
      "stateMutability": "view",
      "type": "function",
      "constant": true
    },
    {
      "inputs": [
        {
          "internalType": "uint256",
          "name": "user_id_1",
          "type": "uint256"
        },
        {
          "internalType": "uint256",
          "name": "user_id_2",
          "type": "uint256"
        }
      ],
      "name": "sendAmount",
      "outputs": [
        {
          "internalType": "bool",
          "name": "",
          "type": "bool"
        }
      ],
      "stateMutability": "nonpayable",
      "type": "function"
    },
    {
      "inputs": [
        {
          "internalType": "uint256",
          "name": "user_id_1",
          "type": "uint256"
        },
        {
          "internalType": "uint256",
          "name": "user_id_2",
          "type": "uint256"
        }
      ],
      "name": "closeAcc",
      "outputs": [],
      "stateMutability": "nonpayable",
      "type": "function"
    }
  ],
  "bytecode": "0x608060405234801561001057600080fd5b50611850806100206000396000f3fe608060405234801561001057600080fd5b50600436106100935760003560e01c80634b27c6ff116100665780634b27c6ff146101485780635db9506e14610178578063b5483481146101a8578063e1d809ff146101c4578063edfec35e146101e057610093565b80631c57333e146100985780632069a73a146100b45780632a20a203146100e7578063365b98b214610117575b600080fd5b6100b260048036038101906100ad919061104f565b610210565b005b6100ce60048036038101906100c991906110ab565b6102a0565b6040516100de94939291906110fa565b60405180910390f35b61010160048036038101906100fc91906110ab565b6102dd565b60405161010e91906111fd565b60405180910390f35b610131600480360381019061012c919061121f565b6104f3565b60405161013f9291906112e6565b60405180910390f35b610162600480360381019061015d91906110ab565b6105ac565b60405161016f9190611316565b60405180910390f35b610192600480360381019061018d91906110ab565b6105dd565b60405161019f9190611331565b60405180910390f35b6101c260048036038101906101bd919061134c565b610917565b005b6101de60048036038101906101d991906110ab565b610a82565b005b6101fa60048036038101906101f5919061121f565b610d70565b6040516102079190611316565b60405180910390f35b604051806040016040528082815260200160011515815250600080848152602001908152602001600020600082015181600001908161024f91906115ab565b5060208201518160010160006101000a81548160ff02191690831515021790555090505060018290806001815401808255809150506001900390600052602060002001600090919091909150555050565b6002602052816000526040600020602052806000526040600020600091509150508060000154908060010154908060020154908060030154905084565b6060600060018054905067ffffffffffffffff811115610300576102ff610f24565b5b60405190808252806020026020018201604052801561032e5781602001602082028036833780820191505090505b50905060005b60018054905081101561037b5760008282815181106103565761035561167d565b5b6020026020010190151590811515815250508080610373906116db565b915050610334565b50600060018054905067ffffffffffffffff81111561039d5761039c610f24565b5b6040519080825280602002602001820160405280156103cb5781602001602082028036833780820191505090505b5090506000806103de8787868686610d94565b9050600081111561049c5760008167ffffffffffffffff81111561040557610404610f24565b5b6040519080825280602002602001820160405280156104335781602001602082028036833780820191505090505b50905060005b8281101561048e578481815181106104545761045361167d565b5b602002602001015182828151811061046f5761046e61167d565b5b6020026020010181815250508080610486906116db565b915050610439565b5080955050505050506104ed565b600067ffffffffffffffff8111156104b7576104b6610f24565b5b6040519080825280602002602001820160405280156104e55781602001602082028036833780820191505090505b509450505050505b92915050565b6000602052806000526040600020600091509050806000018054610516906113ce565b80601f0160208091040260200160405190810160405280929190818152602001828054610542906113ce565b801561058f5780601f106105645761010080835404028352916020019161058f565b820191906000526020600020905b81548152906001019060200180831161057257829003601f168201915b5050505050908060010160009054906101000a900460ff16905082565b600360205281600052604060002081815481106105c857600080fd5b90600052602060002001600091509150505481565b6000806001905060006105f085856102dd565b9050600081510361060657600092505050610911565b8381600183516106169190611723565b815181106106275761062661167d565b5b60200260200101511461063f57600092505050610911565b60005b600182516106509190611723565b8110156106e557826002600084848151811061066f5761066e61167d565b5b602002602001015181526020019081526020016000206000846001856106959190611757565b815181106106a6576106a561167d565b5b602002602001015181526020019081526020016000206002015410156106d25760009350505050610911565b80806106dd906116db565b915050610642565b5060005b600182516106f79190611723565b8110156109095782600260008484815181106107165761071561167d565b5b6020026020010151815260200190815260200160002060008460018561073c9190611757565b8151811061074d5761074c61167d565b5b6020026020010151815260200190815260200160002060020160008282546107759190611723565b9250508190555082600260008484815181106107945761079361167d565b5b602002602001015181526020019081526020016000206000846001856107ba9190611757565b815181106107cb576107ca61167d565b5b6020026020010151815260200190815260200160002060030160008282546107f39190611757565b9250508190555082600260008460018561080d9190611757565b8151811061081e5761081d61167d565b5b6020026020010151815260200190815260200160002060008484815181106108495761084861167d565b5b6020026020010151815260200190815260200160002060020160008282546108719190611757565b9250508190555082600260008460018561088b9190611757565b8151811061089c5761089b61167d565b5b6020026020010151815260200190815260200160002060008484815181106108c7576108c661167d565b5b6020026020010151815260200190815260200160002060030160008282546108ef9190611723565b925050819055508080610901906116db565b9150506106e9565b506001925050505b92915050565b600060028261092691906117ba565b90506040518060800160405280858152602001848152602001828152602001828152506002600086815260200190815260200160002060008581526020019081526020016000206000820151816000015560208201518160010155604082015181600201556060820151816003015590505060405180608001604052808481526020018581526020018281526020018281525060026000858152602001908152602001600020600086815260200190815260200160002060008201518160000155602082015181600101556040820151816002015560608201518160030155905050600360008581526020019081526020016000208390806001815401808255809150506001900390600052602060002001600090919091909150556003600084815260200190815260200160002084908060018154018082558091505060019003906000526020600020016000909190919091505550505050565b60005b6003600084815260200190815260200160002080549050811015610baf5781600360008581526020019081526020016000208281548110610ac957610ac861167d565b5b906000526020600020015403610b9c576003600084815260200190815260200160002060016003600086815260200190815260200160002080549050610b0f9190611723565b81548110610b2057610b1f61167d565b5b9060005260206000200154600360008581526020019081526020016000208281548110610b5057610b4f61167d565b5b906000526020600020018190555060036000848152602001908152602001600020805480610b8157610b806117eb565b5b60019003818190600052602060002001600090559055610baf565b8080610ba7906116db565b915050610a85565b5060005b6003600083815260200190815260200160002080549050811015610cdd5782600360008481526020019081526020016000208281548110610bf757610bf661167d565b5b906000526020600020015403610cca576003600083815260200190815260200160002060016003600085815260200190815260200160002080549050610c3d9190611723565b81548110610c4e57610c4d61167d565b5b9060005260206000200154600360008481526020019081526020016000208281548110610c7e57610c7d61167d565b5b906000526020600020018190555060036000838152602001908152602001600020805480610caf57610cae6117eb565b5b60019003818190600052602060002001600090559055610cdd565b8080610cd5906116db565b915050610bb3565b50600260008381526020019081526020016000206000828152602001908152602001600020600080820160009055600182016000905560028201600090556003820160009055505060026000828152602001908152602001600020600083815260200190815260200160002060008082016000905560018201600090556002820160009055600382016000905550505050565b60018181548110610d8057600080fd5b906000526020600020016000915090505481565b60006001848781518110610dab57610daa61167d565b5b60200260200101901515908115158152505085838381518110610dd157610dd061167d565b5b6020026020010181815250508180610de8906116db565b925050848603610dfa57819050610eb6565b60005b6003600088815260200190815260200160002080549050811015610eb0576000600360008981526020019081526020016000208281548110610e4257610e4161167d565b5b9060005260206000200154905060001515868281518110610e6657610e6561167d565b5b6020026020010151151503610e9c576000610e848289898989610d94565b90506000811115610e9a57809350505050610eb6565b505b508080610ea8906116db565b915050610dfd565b50600090505b95945050505050565b6000604051905090565b600080fd5b600080fd5b6000819050919050565b610ee681610ed3565b8114610ef157600080fd5b50565b600081359050610f0381610edd565b92915050565b600080fd5b600080fd5b6000601f19601f8301169050919050565b7f4e487b7100000000000000000000000000000000000000000000000000000000600052604160045260246000fd5b610f5c82610f13565b810181811067ffffffffffffffff82111715610f7b57610f7a610f24565b5b80604052505050565b6000610f8e610ebf565b9050610f9a8282610f53565b919050565b600067ffffffffffffffff821115610fba57610fb9610f24565b5b610fc382610f13565b9050602081019050919050565b82818337600083830152505050565b6000610ff2610fed84610f9f565b610f84565b90508281526020810184848401111561100e5761100d610f0e565b5b611019848285610fd0565b509392505050565b600082601f83011261103657611035610f09565b5b8135611046848260208601610fdf565b91505092915050565b6000806040838503121561106657611065610ec9565b5b600061107485828601610ef4565b925050602083013567ffffffffffffffff81111561109557611094610ece565b5b6110a185828601611021565b9150509250929050565b600080604083850312156110c2576110c1610ec9565b5b60006110d085828601610ef4565b92505060206110e185828601610ef4565b9150509250929050565b6110f481610ed3565b82525050565b600060808201905061110f60008301876110eb565b61111c60208301866110eb565b61112960408301856110eb565b61113660608301846110eb565b95945050505050565b600081519050919050565b600082825260208201905092915050565b6000819050602082019050919050565b61117481610ed3565b82525050565b6000611186838361116b565b60208301905092915050565b6000602082019050919050565b60006111aa8261113f565b6111b4818561114a565b93506111bf8361115b565b8060005b838110156111f05781516111d7888261117a565b97506111e283611192565b9250506001810190506111c3565b5085935050505092915050565b60006020820190508181036000830152611217818461119f565b905092915050565b60006020828403121561123557611234610ec9565b5b600061124384828501610ef4565b91505092915050565b600081519050919050565b600082825260208201905092915050565b60005b8381101561128657808201518184015260208101905061126b565b60008484015250505050565b600061129d8261124c565b6112a78185611257565b93506112b7818560208601611268565b6112c081610f13565b840191505092915050565b60008115159050919050565b6112e0816112cb565b82525050565b600060408201905081810360008301526113008185611292565b905061130f60208301846112d7565b9392505050565b600060208201905061132b60008301846110eb565b92915050565b600060208201905061134660008301846112d7565b92915050565b60008060006060848603121561136557611364610ec9565b5b600061137386828701610ef4565b935050602061138486828701610ef4565b925050604061139586828701610ef4565b9150509250925092565b7f4e487b7100000000000000000000000000000000000000000000000000000000600052602260045260246000fd5b600060028204905060018216806113e657607f821691505b6020821081036113f9576113f861139f565b5b50919050565b60008190508160005260206000209050919050565b60006020601f8301049050919050565b600082821b905092915050565b6000600883026114617fffffffffffffffffffffffffffffffffffffffffffffffffffffffffffffffff82611424565b61146b8683611424565b95508019841693508086168417925050509392505050565b6000819050919050565b60006114a86114a361149e84610ed3565b611483565b610ed3565b9050919050565b6000819050919050565b6114c28361148d565b6114d66114ce826114af565b848454611431565b825550505050565b600090565b6114eb6114de565b6114f68184846114b9565b505050565b5b8181101561151a5761150f6000826114e3565b6001810190506114fc565b5050565b601f82111561155f57611530816113ff565b61153984611414565b81016020851015611548578190505b61155c61155485611414565b8301826114fb565b50505b505050565b600082821c905092915050565b600061158260001984600802611564565b1980831691505092915050565b600061159b8383611571565b9150826002028217905092915050565b6115b48261124c565b67ffffffffffffffff8111156115cd576115cc610f24565b5b6115d782546113ce565b6115e282828561151e565b600060209050601f8311600181146116155760008415611603578287015190505b61160d858261158f565b865550611675565b601f198416611623866113ff565b60005b8281101561164b57848901518255600182019150602085019450602081019050611626565b868310156116685784890151611664601f891682611571565b8355505b6001600288020188555050505b505050505050565b7f4e487b7100000000000000000000000000000000000000000000000000000000600052603260045260246000fd5b7f4e487b7100000000000000000000000000000000000000000000000000000000600052601160045260246000fd5b60006116e682610ed3565b91507fffffffffffffffffffffffffffffffffffffffffffffffffffffffffffffffff8203611718576117176116ac565b5b600182019050919050565b600061172e82610ed3565b915061173983610ed3565b9250828203905081811115611751576117506116ac565b5b92915050565b600061176282610ed3565b915061176d83610ed3565b9250828201905080821115611785576117846116ac565b5b92915050565b7f4e487b7100000000000000000000000000000000000000000000000000000000600052601260045260246000fd5b60006117c582610ed3565b91506117d083610ed3565b9250826117e0576117df61178b565b5b828204905092915050565b7f4e487b7100000000000000000000000000000000000000000000000000000000600052603160045260246000fdfea2646970667358221220aae00aab78a52ea58540cfe398c353062f809547d2f592b81dbb2643ae79457364736f6c63430008130033",
  "immutableReferences": {},
  "source": "// SPDX-License-Identifier: MIT\r\npragma solidity >=0.4.22 <0.9.0;\r\n\r\ncontract Payment {\r\n\r\n  /* Function registerUser()\r\n  @param user_id: user id\r\n  @param user_name: user name\r\n  Register user and add to list of available users to transact\r\n  */\r\n  struct User {\r\n    string name;\r\n    bool exists;\r\n  }\r\n\r\n  mapping(uint256 => User) public users;\r\n  uint256[] public userIDs;\r\n\r\n  function registerUser(uint256 user_id, string memory user_name) public {\r\n    users[user_id] = User(user_name, true);\r\n    userIDs.push(user_id);\r\n  }\r\n\r\n  /* Function createAcc()\r\n  @param user_id_1: user id of first user\r\n  @param user_id_2: user id of second user\r\n  Create a joint account between two users and keep track of individual contributions\r\n  */\r\n  struct Account {\r\n    uint256 user_id_1;\r\n    uint256 user_id_2;\r\n    uint256 balance_1;\r\n    uint256 balance_2;\r\n  }\r\n\r\n  //mapping from pair of user ids to account, and adjacency list\r\n  mapping(uint256 => mapping(uint256 => Account)) public accounts;\r\n  mapping(uint256 => uint256[]) public adjList;\r\n\r\n  function createAcc(uint256 user_id_1, uint256 user_id_2, uint256 amount) public {\r\n    // Create a new account and add to the mapping and account IDs list\r\n    uint256 amountby2 = amount/2;\r\n    accounts[user_id_1][user_id_2] = Account(user_id_1, user_id_2, amountby2, amountby2);\r\n    accounts[user_id_2][user_id_1] = Account(user_id_2, user_id_1, amountby2, amountby2);\r\n    // Add the two users to each other's adjacency list\r\n    adjList[user_id_1].push(user_id_2);\r\n    adjList[user_id_2].push(user_id_1);\r\n  }\r\n\r\n  // Depth-first search starting from a given node\r\n  function dfs(uint256 start, uint256 end) public view returns (uint256[] memory) {\r\n      bool[] memory visited = new bool[](userIDs.length);\r\n      for(uint256 i = 0; i < userIDs.length; i++){\r\n        visited[i] = false;\r\n      }\r\n      uint256[] memory path = new uint256[](userIDs.length);\r\n      uint256 pathIndex = 0;\r\n      uint256 pathFound = dfsHelper(start, end, visited, path, pathIndex);\r\n      if (pathFound > 0) {\r\n          uint256[] memory result = new uint256[](pathFound);\r\n          for (uint256 i = 0; i < pathFound; i++) {\r\n              result[i] = path[i];\r\n          }\r\n          return result;\r\n      } else {\r\n          return new uint256[](0);\r\n      }\r\n  }\r\n\r\n  // Recursive helper function for DFS\r\n  function dfsHelper(uint256 node, uint256 end, bool[] memory visited, uint256[] memory path, uint256 pathIndex) private view returns (uint256) {\r\n      visited[node] = true;\r\n      path[pathIndex] = node;\r\n      pathIndex++;\r\n      if (node == end) {\r\n          return pathIndex;\r\n      }\r\n      for (uint256 i = 0; i < adjList[node].length; i++) {\r\n          uint256 neighbor = adjList[node][i];\r\n          if (visited[neighbor] == false) {\r\n              uint256 pathFound = dfsHelper(neighbor, end, visited, path, pathIndex);\r\n              if (pathFound>0) {\r\n                  return pathFound;\r\n              }\r\n          }\r\n      }\r\n      return 0;\r\n  }\r\n\r\n  /* Function sendAmount()\r\n  @param user_id_1: user id of sender\r\n  @param user_id_2: user id of receiver\r\n  Transfer the amount from sender to receiver\r\n  Default amount is 1\r\n  If user doesnt have sufficient balance, reject transaction\r\n  Check balance of all users on path before transferring amount\r\n  Use DFS to find the shortest path between the two users\r\n  */\r\n\r\n  function sendAmount(uint256 user_id_1, uint256 user_id_2) public returns (bool){\r\n    //Fix transaction amount\r\n    uint256 amount = 1; \r\n    // Find the shortest path between the two users\r\n    uint256[] memory path = dfs(user_id_1, user_id_2);\r\n    // Check if the path exists\r\n    // require(path.length != 0, \"No path exists\");\r\n    if (path.length == 0) {\r\n      return false;\r\n    }\r\n    // Check if the users on the path have sufficient balance\r\n    // require(path[path.length - 1] == user_id_2, \"Wrong Path\");\r\n    if (path[path.length - 1] != user_id_2) {\r\n      return false;\r\n    }\r\n    for (uint256 i = 0; i < path.length - 1; i++) {\r\n      // require(accounts[path[i]][path[i + 1]].balance_1 >= amount, \"Insufficient balance\");\r\n      if (accounts[path[i]][path[i + 1]].balance_1 < amount) {\r\n        return false;\r\n      }\r\n    }\r\n    // Transfer the amount from sender to receiver via the path\r\n    for (uint256 i = 0; i < path.length - 1; i++) {\r\n      accounts[path[i]][path[i + 1]].balance_1 -= amount;\r\n      accounts[path[i]][path[i + 1]].balance_2 += amount;\r\n      accounts[path[i + 1]][path[i]].balance_1 += amount;\r\n      accounts[path[i + 1]][path[i]].balance_2 -= amount;\r\n    }\r\n\r\n    return true;\r\n  }\r\n\r\n  /* Function closeAcc()\r\n  @param user_id_1: user id of first user\r\n  @param user_id_2: user id of second user\r\n  Close the joint account between two users\r\n  */\r\n\r\n  function closeAcc(uint256 user_id_1, uint256 user_id_2) public {\r\n    // Remove the two users from each other's adjacency list\r\n    for (uint256 i = 0; i < adjList[user_id_1].length; i++) {\r\n      if (adjList[user_id_1][i] == user_id_2) {\r\n        adjList[user_id_1][i] = adjList[user_id_1][adjList[user_id_1].length - 1];\r\n        adjList[user_id_1].pop();\r\n        break;\r\n      }\r\n    }\r\n    for (uint256 i = 0; i < adjList[user_id_2].length; i++) {\r\n      if (adjList[user_id_2][i] == user_id_1) {\r\n        adjList[user_id_2][i] = adjList[user_id_2][adjList[user_id_2].length - 1];\r\n        adjList[user_id_2].pop();\r\n        break;\r\n      }\r\n    }\r\n    // Remove the account from the mapping\r\n    delete accounts[user_id_1][user_id_2];\r\n    delete accounts[user_id_2][user_id_1];\r\n  }\r\n}",
  "sourcePath": "C:\\Users\\ojasw\\Desktop\\Acads\\hw3\\contracts\\Payment.sol",
  "compiler": {
    "name": "solc",
    "version": "0.8.19+commit.7dd6d404.Emscripten.clang"
  },
  "schemaVersion": "3.4.13",
  "updatedAt": "2023-04-10T12:24:53.089Z",
  "networkType": "ethereum",
  "devdoc": {
    "kind": "dev",
    "methods": {},
    "version": 1
  },
  "userdoc": {
    "kind": "user",
    "methods": {},
    "version": 1
  }
}