{
  "contractName": "Payment",
  "abi": [
    {
      "inputs": [
        {
          "internalType": "uint256",
          "name": "",
          "type": "uint256"
        },
        {
          "internalType": "uint256",
          "name": "",
          "type": "uint256"
        }
      ],
      "name": "accounts",
      "outputs": [
        {
          "internalType": "uint256",
          "name": "user_id_1",
          "type": "uint256"
        },
        {
          "internalType": "uint256",
          "name": "user_id_2",
          "type": "uint256"
        },
        {
          "internalType": "uint256",
          "name": "balance_1",
          "type": "uint256"
        },
        {
          "internalType": "uint256",
          "name": "balance_2",
          "type": "uint256"
        }
      ],
      "stateMutability": "view",
      "type": "function",
      "constant": true
    },
    {
      "inputs": [
        {
          "internalType": "uint256",
          "name": "",
          "type": "uint256"
        },
        {
          "internalType": "uint256",
          "name": "",
          "type": "uint256"
        }
      ],
      "name": "adjList",
      "outputs": [
        {
          "internalType": "uint256",
          "name": "",
          "type": "uint256"
        }
      ],
      "stateMutability": "view",
      "type": "function",
      "constant": true
    },
    {
      "inputs": [
        {
          "internalType": "uint256",
          "name": "",
          "type": "uint256"
        }
      ],
      "name": "userIDs",
      "outputs": [
        {
          "internalType": "uint256",
          "name": "",
          "type": "uint256"
        }
      ],
      "stateMutability": "view",
      "type": "function",
      "constant": true
    },
    {
      "inputs": [
        {
          "internalType": "uint256",
          "name": "",
          "type": "uint256"
        }
      ],
      "name": "users",
      "outputs": [
        {
          "internalType": "string",
          "name": "name",
          "type": "string"
        },
        {
          "internalType": "bool",
          "name": "exists",
          "type": "bool"
        }
      ],
      "stateMutability": "view",
      "type": "function",
      "constant": true
    },
    {
      "inputs": [
        {
          "internalType": "uint256",
          "name": "user_id",
          "type": "uint256"
        },
        {
          "internalType": "string",
          "name": "user_name",
          "type": "string"
        }
      ],
      "name": "registerUser",
      "outputs": [],
      "stateMutability": "nonpayable",
      "type": "function"
    },
    {
      "inputs": [
        {
          "internalType": "uint256",
          "name": "user_id_1",
          "type": "uint256"
        },
        {
          "internalType": "uint256",
          "name": "user_id_2",
          "type": "uint256"
        },
        {
          "internalType": "uint256",
          "name": "amount",
          "type": "uint256"
        }
      ],
      "name": "createAcc",
      "outputs": [],
      "stateMutability": "nonpayable",
      "type": "function"
    },
    {
      "inputs": [
        {
          "internalType": "uint256",
          "name": "start",
          "type": "uint256"
        },
        {
          "internalType": "uint256",
          "name": "end",
          "type": "uint256"
        }
      ],
      "name": "bfs",
      "outputs": [
        {
          "internalType": "uint256[]",
          "name": "",
          "type": "uint256[]"
        }
      ],
      "stateMutability": "view",
      "type": "function",
      "constant": true
    },
    {
      "inputs": [
        {
          "internalType": "uint256",
          "name": "user_id_1",
          "type": "uint256"
        },
        {
          "internalType": "uint256",
          "name": "user_id_2",
          "type": "uint256"
        }
      ],
      "name": "sendAmount",
      "outputs": [
        {
          "internalType": "bool",
          "name": "",
          "type": "bool"
        }
      ],
      "stateMutability": "nonpayable",
      "type": "function"
    },
    {
      "inputs": [
        {
          "internalType": "uint256",
          "name": "user_id_1",
          "type": "uint256"
        },
        {
          "internalType": "uint256",
          "name": "user_id_2",
          "type": "uint256"
        }
      ],
      "name": "closeAcc",
      "outputs": [],
      "stateMutability": "nonpayable",
      "type": "function"
    }
  ],
  "bytecode": "0x608060405234801561001057600080fd5b50611c50806100206000396000f3fe608060405234801561001057600080fd5b50600436106100935760003560e01c80635db9506e116100665780635db9506e14610148578063613f9c1814610178578063b5483481146101a8578063e1d809ff146101c4578063edfec35e146101e057610093565b80631c57333e146100985780632069a73a146100b4578063365b98b2146100e75780634b27c6ff14610118575b600080fd5b6100b260048036038101906100ad919061130b565b610210565b005b6100ce60048036038101906100c99190611367565b6102a0565b6040516100de94939291906113b6565b60405180910390f35b61010160048036038101906100fc91906113fb565b6102dd565b60405161010f9291906114c2565b60405180910390f35b610132600480360381019061012d9190611367565b610396565b60405161013f91906114f2565b60405180910390f35b610162600480360381019061015d9190611367565b6103c7565b60405161016f919061150d565b60405180910390f35b610192600480360381019061018d9190611367565b61078f565b60405161019f91906115e6565b60405180910390f35b6101c260048036038101906101bd9190611608565b610cfe565b005b6101de60048036038101906101d99190611367565b610e69565b005b6101fa60048036038101906101f591906113fb565b611157565b60405161020791906114f2565b60405180910390f35b604051806040016040528082815260200160011515815250600080848152602001908152602001600020600082015181600001908161024f9190611867565b5060208201518160010160006101000a81548160ff02191690831515021790555090505060018290806001815401808255809150506001900390600052602060002001600090919091909150555050565b6002602052816000526040600020602052806000526040600020600091509150508060000154908060010154908060020154908060030154905084565b60006020528060005260406000206000915090508060000180546103009061168a565b80601f016020809104026020016040519081016040528092919081815260200182805461032c9061168a565b80156103795780601f1061034e57610100808354040283529160200191610379565b820191906000526020600020905b81548152906001019060200180831161035c57829003601f168201915b5050505050908060010160009054906101000a900460ff16905082565b600360205281600052604060002081815481106103b257600080fd5b90600052602060002001600091509150505481565b6000806001905060006103da858561078f565b90506000815103610420576040517f08c379a000000000000000000000000000000000000000000000000000000000815260040161041790611985565b60405180910390fd5b83816001835161043091906119d4565b8151811061044157610440611a08565b5b602002602001015114610489576040517f08c379a000000000000000000000000000000000000000000000000000000000815260040161048090611a83565b60405180910390fd5b60005b6001825161049a91906119d4565b81101561055e5782600260008484815181106104b9576104b8611a08565b5b602002602001015181526020019081526020016000206000846001856104df9190611aa3565b815181106104f0576104ef611a08565b5b6020026020010151815260200190815260200160002060020154101561054b576040517f08c379a000000000000000000000000000000000000000000000000000000000815260040161054290611b23565b60405180910390fd5b808061055690611b43565b91505061048c565b5060005b6001825161057091906119d4565b81101561078257826002600084848151811061058f5761058e611a08565b5b602002602001015181526020019081526020016000206000846001856105b59190611aa3565b815181106105c6576105c5611a08565b5b6020026020010151815260200190815260200160002060020160008282546105ee91906119d4565b92505081905550826002600084848151811061060d5761060c611a08565b5b602002602001015181526020019081526020016000206000846001856106339190611aa3565b8151811061064457610643611a08565b5b60200260200101518152602001908152602001600020600301600082825461066c9190611aa3565b925050819055508260026000846001856106869190611aa3565b8151811061069757610696611a08565b5b6020026020010151815260200190815260200160002060008484815181106106c2576106c1611a08565b5b6020026020010151815260200190815260200160002060020160008282546106ea9190611aa3565b925050819055508260026000846001856107049190611aa3565b8151811061071557610714611a08565b5b6020026020010151815260200190815260200160002060008484815181106107405761073f611a08565b5b60200260200101518152602001908152602001600020600301600082825461076891906119d4565b92505081905550808061077a90611b43565b915050610562565b5060019250505092915050565b6060600060018054905067ffffffffffffffff8111156107b2576107b16111e0565b5b6040519080825280602002602001820160405280156107e05781602001602082028036833780820191505090505b50905060005b60018054905081101561082d57600082828151811061080857610807611a08565b5b602002602001019015159081151581525050808061082590611b43565b9150506107e6565b50600060018054905067ffffffffffffffff81111561084f5761084e6111e0565b5b60405190808252806020026020018201604052801561087d5781602001602082028036833780820191505090505b50905060005b6001805490508110156108d357600180805490506108a19190611aa3565b8282815181106108b4576108b3611a08565b5b60200260200101818152505080806108cb90611b43565b915050610883565b506001805490508186815181106108ed576108ec611a08565b5b602002602001018181525050600182868151811061090e5761090d611a08565b5b602002602001019015159081151581525050600060018054905067ffffffffffffffff811115610941576109406111e0565b5b60405190808252806020026020018201604052801561096f5781602001602082028036833780820191505090505b5090506000808783828151811061098957610988611a08565b5b60200260200101818152505080806109a090611b43565b9150505b80821015610af25760008383815181106109c1576109c0611a08565b5b6020026020010151905082806109d690611b43565b9350508781036109e65750610af2565b60005b6003600083815260200190815260200160002080549050811015610aeb576000600360008481526020019081526020016000208281548110610a2e57610a2d611a08565b5b9060005260206000200154905060001515888281518110610a5257610a51611a08565b5b6020026020010151151503610ad7576001888281518110610a7657610a75611a08565b5b60200260200101901515908115158152505082878281518110610a9c57610a9b611a08565b5b60200260200101818152505080868581518110610abc57610abb611a08565b5b6020026020010181815250508380610ad390611b43565b9450505b508080610ae390611b43565b9150506109e9565b50506109a4565b60018080549050610b039190611aa3565b848881518110610b1657610b15611a08565b5b602002602001015114610ca657600060018054905067ffffffffffffffff811115610b4457610b436111e0565b5b604051908082528060200260200182016040528015610b725781602001602082028036833780820191505090505b5090506000808990505b6001805490508114610bd85780838381518110610b9c57610b9b611a08565b5b6020026020010181815250508180610bb390611b43565b925050868181518110610bc957610bc8611a08565b5b60200260200101519050610b7c565b60008267ffffffffffffffff811115610bf457610bf36111e0565b5b604051908082528060200260200182016040528015610c225781602001602082028036833780820191505090505b50905060005b83811015610c94578460018286610c3f91906119d4565b610c4991906119d4565b81518110610c5a57610c59611a08565b5b6020026020010151828281518110610c7557610c74611a08565b5b6020026020010181815250508080610c8c90611b43565b915050610c28565b50809950505050505050505050610cf8565b600067ffffffffffffffff811115610cc157610cc06111e0565b5b604051908082528060200260200182016040528015610cef5781602001602082028036833780820191505090505b50955050505050505b92915050565b6000600282610d0d9190611bba565b90506040518060800160405280858152602001848152602001828152602001828152506002600086815260200190815260200160002060008581526020019081526020016000206000820151816000015560208201518160010155604082015181600201556060820151816003015590505060405180608001604052808481526020018581526020018281526020018281525060026000858152602001908152602001600020600086815260200190815260200160002060008201518160000155602082015181600101556040820151816002015560608201518160030155905050600360008581526020019081526020016000208390806001815401808255809150506001900390600052602060002001600090919091909150556003600084815260200190815260200160002084908060018154018082558091505060019003906000526020600020016000909190919091505550505050565b60005b6003600084815260200190815260200160002080549050811015610f965781600360008581526020019081526020016000208281548110610eb057610eaf611a08565b5b906000526020600020015403610f83576003600084815260200190815260200160002060016003600086815260200190815260200160002080549050610ef691906119d4565b81548110610f0757610f06611a08565b5b9060005260206000200154600360008581526020019081526020016000208281548110610f3757610f36611a08565b5b906000526020600020018190555060036000848152602001908152602001600020805480610f6857610f67611beb565b5b60019003818190600052602060002001600090559055610f96565b8080610f8e90611b43565b915050610e6c565b5060005b60036000838152602001908152602001600020805490508110156110c45782600360008481526020019081526020016000208281548110610fde57610fdd611a08565b5b9060005260206000200154036110b157600360008381526020019081526020016000206001600360008581526020019081526020016000208054905061102491906119d4565b8154811061103557611034611a08565b5b906000526020600020015460036000848152602001908152602001600020828154811061106557611064611a08565b5b90600052602060002001819055506003600083815260200190815260200160002080548061109657611095611beb565b5b600190038181906000526020600020016000905590556110c4565b80806110bc90611b43565b915050610f9a565b50600260008381526020019081526020016000206000828152602001908152602001600020600080820160009055600182016000905560028201600090556003820160009055505060026000828152602001908152602001600020600083815260200190815260200160002060008082016000905560018201600090556002820160009055600382016000905550505050565b6001818154811061116757600080fd5b906000526020600020016000915090505481565b6000604051905090565b600080fd5b600080fd5b6000819050919050565b6111a28161118f565b81146111ad57600080fd5b50565b6000813590506111bf81611199565b92915050565b600080fd5b600080fd5b6000601f19601f8301169050919050565b7f4e487b7100000000000000000000000000000000000000000000000000000000600052604160045260246000fd5b611218826111cf565b810181811067ffffffffffffffff82111715611237576112366111e0565b5b80604052505050565b600061124a61117b565b9050611256828261120f565b919050565b600067ffffffffffffffff821115611276576112756111e0565b5b61127f826111cf565b9050602081019050919050565b82818337600083830152505050565b60006112ae6112a98461125b565b611240565b9050828152602081018484840111156112ca576112c96111ca565b5b6112d584828561128c565b509392505050565b600082601f8301126112f2576112f16111c5565b5b813561130284826020860161129b565b91505092915050565b6000806040838503121561132257611321611185565b5b6000611330858286016111b0565b925050602083013567ffffffffffffffff8111156113515761135061118a565b5b61135d858286016112dd565b9150509250929050565b6000806040838503121561137e5761137d611185565b5b600061138c858286016111b0565b925050602061139d858286016111b0565b9150509250929050565b6113b08161118f565b82525050565b60006080820190506113cb60008301876113a7565b6113d860208301866113a7565b6113e560408301856113a7565b6113f260608301846113a7565b95945050505050565b60006020828403121561141157611410611185565b5b600061141f848285016111b0565b91505092915050565b600081519050919050565b600082825260208201905092915050565b60005b83811015611462578082015181840152602081019050611447565b60008484015250505050565b600061147982611428565b6114838185611433565b9350611493818560208601611444565b61149c816111cf565b840191505092915050565b60008115159050919050565b6114bc816114a7565b82525050565b600060408201905081810360008301526114dc818561146e565b90506114eb60208301846114b3565b9392505050565b600060208201905061150760008301846113a7565b92915050565b600060208201905061152260008301846114b3565b92915050565b600081519050919050565b600082825260208201905092915050565b6000819050602082019050919050565b61155d8161118f565b82525050565b600061156f8383611554565b60208301905092915050565b6000602082019050919050565b600061159382611528565b61159d8185611533565b93506115a883611544565b8060005b838110156115d95781516115c08882611563565b97506115cb8361157b565b9250506001810190506115ac565b5085935050505092915050565b600060208201905081810360008301526116008184611588565b905092915050565b60008060006060848603121561162157611620611185565b5b600061162f868287016111b0565b9350506020611640868287016111b0565b9250506040611651868287016111b0565b9150509250925092565b7f4e487b7100000000000000000000000000000000000000000000000000000000600052602260045260246000fd5b600060028204905060018216806116a257607f821691505b6020821081036116b5576116b461165b565b5b50919050565b60008190508160005260206000209050919050565b60006020601f8301049050919050565b600082821b905092915050565b60006008830261171d7fffffffffffffffffffffffffffffffffffffffffffffffffffffffffffffffff826116e0565b61172786836116e0565b95508019841693508086168417925050509392505050565b6000819050919050565b600061176461175f61175a8461118f565b61173f565b61118f565b9050919050565b6000819050919050565b61177e83611749565b61179261178a8261176b565b8484546116ed565b825550505050565b600090565b6117a761179a565b6117b2818484611775565b505050565b5b818110156117d6576117cb60008261179f565b6001810190506117b8565b5050565b601f82111561181b576117ec816116bb565b6117f5846116d0565b81016020851015611804578190505b611818611810856116d0565b8301826117b7565b50505b505050565b600082821c905092915050565b600061183e60001984600802611820565b1980831691505092915050565b6000611857838361182d565b9150826002028217905092915050565b61187082611428565b67ffffffffffffffff811115611889576118886111e0565b5b611893825461168a565b61189e8282856117da565b600060209050601f8311600181146118d157600084156118bf578287015190505b6118c9858261184b565b865550611931565b601f1984166118df866116bb565b60005b82811015611907578489015182556001820191506020850194506020810190506118e2565b868310156119245784890151611920601f89168261182d565b8355505b6001600288020188555050505b505050505050565b7f4e6f207061746820657869737473000000000000000000000000000000000000600082015250565b600061196f600e83611433565b915061197a82611939565b602082019050919050565b6000602082019050818103600083015261199e81611962565b9050919050565b7f4e487b7100000000000000000000000000000000000000000000000000000000600052601160045260246000fd5b60006119df8261118f565b91506119ea8361118f565b9250828203905081811115611a0257611a016119a5565b5b92915050565b7f4e487b7100000000000000000000000000000000000000000000000000000000600052603260045260246000fd5b7f57726f6e67205061746800000000000000000000000000000000000000000000600082015250565b6000611a6d600a83611433565b9150611a7882611a37565b602082019050919050565b60006020820190508181036000830152611a9c81611a60565b9050919050565b6000611aae8261118f565b9150611ab98361118f565b9250828201905080821115611ad157611ad06119a5565b5b92915050565b7f496e73756666696369656e742062616c616e6365000000000000000000000000600082015250565b6000611b0d601483611433565b9150611b1882611ad7565b602082019050919050565b60006020820190508181036000830152611b3c81611b00565b9050919050565b6000611b4e8261118f565b91507fffffffffffffffffffffffffffffffffffffffffffffffffffffffffffffffff8203611b8057611b7f6119a5565b5b600182019050919050565b7f4e487b7100000000000000000000000000000000000000000000000000000000600052601260045260246000fd5b6000611bc58261118f565b9150611bd08361118f565b925082611be057611bdf611b8b565b5b828204905092915050565b7f4e487b7100000000000000000000000000000000000000000000000000000000600052603160045260246000fdfea26469706673582212206b9c5b075fe9acddf402aafcb471c2dae6f2b916ab03c6bcb31c35fcce644f4464736f6c63430008130033",
  "immutableReferences": {},
  "source": "// SPDX-License-Identifier: MIT\r\npragma solidity >=0.4.22 <0.9.0;\r\n\r\ncontract Payment {\r\n\r\n  /* Function registerUser()\r\n  @param user_id: user id\r\n  @param user_name: user name\r\n  Register user and add to list of available users to transact\r\n  */\r\n  struct User {\r\n    string name;\r\n    bool exists;\r\n  }\r\n\r\n  mapping(uint256 => User) public users;\r\n  uint256[] public userIDs;\r\n\r\n  function registerUser(uint256 user_id, string memory user_name) public {\r\n    users[user_id] = User(user_name, true);\r\n    userIDs.push(user_id);\r\n  }\r\n\r\n  /* Function createAcc()\r\n  @param user_id_1: user id of first user\r\n  @param user_id_2: user id of second user\r\n  Create a joint account between two users and keep track of individual contributions\r\n  */\r\n  struct Account {\r\n    uint256 user_id_1;\r\n    uint256 user_id_2;\r\n    uint256 balance_1;\r\n    uint256 balance_2;\r\n  }\r\n\r\n  //mapping from pair of user ids to account, and adjacency list\r\n  mapping(uint256 => mapping(uint256 => Account)) public accounts;\r\n  mapping(uint256 => uint256[]) public adjList;\r\n\r\n  function createAcc(uint256 user_id_1, uint256 user_id_2, uint256 amount) public {\r\n    // Create a new account and add to the mapping and account IDs list\r\n    uint256 amountby2 = amount/2;\r\n    accounts[user_id_1][user_id_2] = Account(user_id_1, user_id_2, amountby2, amountby2);\r\n    accounts[user_id_2][user_id_1] = Account(user_id_2, user_id_1, amountby2, amountby2);\r\n    // Add the two users to each other's adjacency list\r\n    adjList[user_id_1].push(user_id_2);\r\n    adjList[user_id_2].push(user_id_1);\r\n  }\r\n\r\n  // Depth-first search starting from a given node\r\n  function bfs(uint256 start, uint256 end) public view returns (uint256[] memory) {\r\n    bool[] memory visited = new bool[](userIDs.length);\r\n    for (uint256 i = 0; i < userIDs.length; i++) {\r\n        visited[i] = false;\r\n    }\r\n    uint256[] memory parent = new uint256[](userIDs.length);\r\n    for (uint256 i = 0; i < userIDs.length; i++) {\r\n        parent[i] = userIDs.length + 1; // initialize all parent nodes to an invalid value\r\n    }\r\n    parent[start] = userIDs.length; // mark the starting node as the root of the BFS tree\r\n    visited[start] = true;\r\n    uint256[] memory queue = new uint256[](userIDs.length);\r\n    uint256 front = 0;\r\n    uint256 rear = 0;\r\n    queue[rear] = start;\r\n    rear++;\r\n    while (front < rear) {\r\n        uint256 node = queue[front];\r\n        front++;\r\n        if (node == end) {\r\n            break; // we have found the shortest path\r\n        }\r\n        for (uint256 i = 0; i < adjList[node].length; i++) {\r\n            uint256 neighbor = adjList[node][i];\r\n            if (visited[neighbor] == false) {\r\n                visited[neighbor] = true;\r\n                parent[neighbor] = node;\r\n                queue[rear] = neighbor;\r\n                rear++;\r\n            }\r\n        }\r\n    }\r\n    if (parent[end] != userIDs.length + 1) { // we have found a path to the end node\r\n        uint256[] memory path = new uint256[](userIDs.length);\r\n        uint256 pathIndex = 0;\r\n        uint256 curr = end;\r\n        while (curr != userIDs.length) {\r\n            path[pathIndex] = curr;\r\n            pathIndex++;\r\n            curr = parent[curr];\r\n        }\r\n        uint256[] memory result = new uint256[](pathIndex);\r\n        for (uint256 i = 0; i < pathIndex; i++) {\r\n            result[i] = path[pathIndex - i - 1];\r\n        }\r\n        return result;\r\n    } else {\r\n        return new uint256[](0); // no path was found\r\n    }\r\n  }\r\n\r\n  // function dfs(uint256 start, uint256 end) public view returns (uint256[] memory) {\r\n  //     bool[] memory visited = new bool[](userIDs.length);\r\n  //     for(uint256 i = 0; i < userIDs.length; i++){\r\n  //       visited[i] = false;\r\n  //     }\r\n  //     uint256[] memory path = new uint256[](userIDs.length);\r\n  //     uint256 pathIndex = 0;\r\n  //     uint256 pathFound = dfsHelper(start, end, visited, path, pathIndex);\r\n  //     if (pathFound > 0) {\r\n  //         uint256[] memory result = new uint256[](pathFound);\r\n  //         for (uint256 i = 0; i < pathFound; i++) {\r\n  //             result[i] = path[i];\r\n  //         }\r\n  //         return result;\r\n  //     } else {\r\n  //         return new uint256[](0);\r\n  //     }\r\n  // }\r\n\r\n  // // Recursive helper function for DFS\r\n  // function dfsHelper(uint256 node, uint256 end, bool[] memory visited, uint256[] memory path, uint256 pathIndex) private view returns (uint256) {\r\n  //     visited[node] = true;\r\n  //     path[pathIndex] = node;\r\n  //     pathIndex++;\r\n  //     if (node == end) {\r\n  //         return pathIndex;\r\n  //     }\r\n  //     for (uint256 i = 0; i < adjList[node].length; i++) {\r\n  //         uint256 neighbor = adjList[node][i];\r\n  //         if (visited[neighbor] == false) {\r\n  //             uint256 pathFound = dfsHelper(neighbor, end, visited, path, pathIndex);\r\n  //             if (pathFound>0) {\r\n  //                 return pathFound;\r\n  //             }\r\n  //         }\r\n  //     }\r\n  //     return 0;\r\n  // }\r\n\r\n  /* Function sendAmount()\r\n  @param user_id_1: user id of sender\r\n  @param user_id_2: user id of receiver\r\n  Transfer the amount from sender to receiver\r\n  Default amount is 1\r\n  If user doesnt have sufficient balance, reject transaction\r\n  Check balance of all users on path before transferring amount\r\n  Use DFS to find the shortest path between the two users\r\n  */\r\n\r\n  function sendAmount(uint256 user_id_1, uint256 user_id_2) public returns (bool){\r\n    //Fix transaction amount\r\n    uint256 amount = 1; \r\n    // Find the shortest path between the two users\r\n    uint256[] memory path = bfs(user_id_1, user_id_2);\r\n    // Check if the path exists\r\n    require(path.length != 0, \"No path exists\");\r\n    // Check if the users on the path have sufficient balance\r\n    require(path[path.length - 1] == user_id_2, \"Wrong Path\");\r\n    for (uint256 i = 0; i < path.length - 1; i++) {\r\n      require(accounts[path[i]][path[i + 1]].balance_1 >= amount, \"Insufficient balance\");\r\n    }\r\n    // Transfer the amount from sender to receiver via the path\r\n    for (uint256 i = 0; i < path.length - 1; i++) {\r\n      accounts[path[i]][path[i + 1]].balance_1 -= amount;\r\n      accounts[path[i]][path[i + 1]].balance_2 += amount;\r\n      accounts[path[i + 1]][path[i]].balance_1 += amount;\r\n      accounts[path[i + 1]][path[i]].balance_2 -= amount;\r\n    }\r\n\r\n    return true;\r\n  }\r\n  /* Function closeAcc()\r\n  @param user_id_1: user id of first user\r\n  @param user_id_2: user id of second user\r\n  Close the joint account between two users\r\n  */\r\n\r\n  function closeAcc(uint256 user_id_1, uint256 user_id_2) public {\r\n    // Remove the two users from each other's adjacency list\r\n    for (uint256 i = 0; i < adjList[user_id_1].length; i++) {\r\n      if (adjList[user_id_1][i] == user_id_2) {\r\n        adjList[user_id_1][i] = adjList[user_id_1][adjList[user_id_1].length - 1];\r\n        adjList[user_id_1].pop();\r\n        break;\r\n      }\r\n    }\r\n    for (uint256 i = 0; i < adjList[user_id_2].length; i++) {\r\n      if (adjList[user_id_2][i] == user_id_1) {\r\n        adjList[user_id_2][i] = adjList[user_id_2][adjList[user_id_2].length - 1];\r\n        adjList[user_id_2].pop();\r\n        break;\r\n      }\r\n    }\r\n    // Remove the account from the mapping\r\n    delete accounts[user_id_1][user_id_2];\r\n    delete accounts[user_id_2][user_id_1];\r\n  }\r\n}",
  "sourcePath": "C:\\Users\\kanishka\\OneDrive\\Documents\\blockchain3\\contracts\\Payment.sol",
  "compiler": {
    "name": "solc",
    "version": "0.8.19+commit.7dd6d404.Emscripten.clang"
  },
  "schemaVersion": "3.4.13",
  "updatedAt": "2023-04-10T15:44:16.433Z",
  "networkType": "ethereum",
  "devdoc": {
    "kind": "dev",
    "methods": {},
    "version": 1
  },
  "userdoc": {
    "kind": "user",
    "methods": {},
    "version": 1
  }
}