{
  "contractName": "Payment",
  "abi": [
    {
      "inputs": [
        {
          "internalType": "uint256",
          "name": "",
          "type": "uint256"
        },
        {
          "internalType": "uint256",
          "name": "",
          "type": "uint256"
        }
      ],
      "name": "accounts",
      "outputs": [
        {
          "internalType": "uint256",
          "name": "user_id_1",
          "type": "uint256"
        },
        {
          "internalType": "uint256",
          "name": "user_id_2",
          "type": "uint256"
        },
        {
          "internalType": "uint256",
          "name": "balance_1",
          "type": "uint256"
        },
        {
          "internalType": "uint256",
          "name": "balance_2",
          "type": "uint256"
        }
      ],
      "stateMutability": "view",
      "type": "function"
    },
    {
      "inputs": [
        {
          "internalType": "uint256",
          "name": "",
          "type": "uint256"
        },
        {
          "internalType": "uint256",
          "name": "",
          "type": "uint256"
        }
      ],
      "name": "adjList",
      "outputs": [
        {
          "internalType": "uint256",
          "name": "",
          "type": "uint256"
        }
      ],
      "stateMutability": "view",
      "type": "function"
    },
    {
      "inputs": [
        {
          "internalType": "uint256",
          "name": "",
          "type": "uint256"
        }
      ],
      "name": "userIDs",
      "outputs": [
        {
          "internalType": "uint256",
          "name": "",
          "type": "uint256"
        }
      ],
      "stateMutability": "view",
      "type": "function"
    },
    {
      "inputs": [
        {
          "internalType": "uint256",
          "name": "",
          "type": "uint256"
        }
      ],
      "name": "users",
      "outputs": [
        {
          "internalType": "string",
          "name": "name",
          "type": "string"
        },
        {
          "internalType": "bool",
          "name": "exists",
          "type": "bool"
        }
      ],
      "stateMutability": "view",
      "type": "function"
    },
    {
      "inputs": [
        {
          "internalType": "uint256",
          "name": "user_id",
          "type": "uint256"
        },
        {
          "internalType": "string",
          "name": "user_name",
          "type": "string"
        }
      ],
      "name": "registerUser",
      "outputs": [],
      "stateMutability": "nonpayable",
      "type": "function"
    },
    {
      "inputs": [
        {
          "internalType": "uint256",
          "name": "user_id_1",
          "type": "uint256"
        },
        {
          "internalType": "uint256",
          "name": "user_id_2",
          "type": "uint256"
        }
      ],
      "name": "createAcc",
      "outputs": [],
      "stateMutability": "nonpayable",
      "type": "function"
    },
    {
      "inputs": [
        {
          "internalType": "uint256",
          "name": "start",
          "type": "uint256"
        },
        {
          "internalType": "uint256",
          "name": "end",
          "type": "uint256"
        }
      ],
      "name": "dfs",
      "outputs": [
        {
          "internalType": "uint256[]",
          "name": "",
          "type": "uint256[]"
        }
      ],
      "stateMutability": "view",
      "type": "function"
    },
    {
      "inputs": [
        {
          "internalType": "uint256",
          "name": "user_id_1",
          "type": "uint256"
        },
        {
          "internalType": "uint256",
          "name": "user_id_2",
          "type": "uint256"
        }
      ],
      "name": "sendAmount",
      "outputs": [],
      "stateMutability": "nonpayable",
      "type": "function"
    },
    {
      "inputs": [
        {
          "internalType": "uint256",
          "name": "user_id_1",
          "type": "uint256"
        },
        {
          "internalType": "uint256",
          "name": "user_id_2",
          "type": "uint256"
        }
      ],
      "name": "closeAcc",
      "outputs": [],
      "stateMutability": "nonpayable",
      "type": "function"
    }
  ],
  "bytecode": "0x608060405234801561001057600080fd5b50611646806100206000396000f3fe608060405234801561001057600080fd5b50600436106100935760003560e01c80634b27c6ff116100665780634b27c6ff146101485780635db9506e14610178578063bcf16ee214610194578063e1d809ff146101b0578063edfec35e146101cc57610093565b80631c57333e146100985780632069a73a146100b45780632a20a203146100e7578063365b98b214610117575b600080fd5b6100b260048036038101906100ad9190610e3b565b6101fc565b005b6100ce60048036038101906100c99190610e97565b61028c565b6040516100de9493929190610ee6565b60405180910390f35b61010160048036038101906100fc9190610e97565b6102c9565b60405161010e9190610fe9565b60405180910390f35b610131600480360381019061012c919061100b565b610491565b60405161013f9291906110d2565b60405180910390f35b610162600480360381019061015d9190610e97565b61054a565b60405161016f9190611102565b60405180910390f35b610192600480360381019061018d9190610e97565b61057b565b005b6101ae60048036038101906101a99190610e97565b6107d3565b005b6101ca60048036038101906101c59190610e97565b6108bd565b005b6101e660048036038101906101e1919061100b565b610b64565b6040516101f39190611102565b60405180910390f35b604051806040016040528082815260200160011515815250600080848152602001908152602001600020600082015181600001908161023b9190611329565b5060208201518160010160006101000a81548160ff02191690831515021790555090505060018290806001815401808255809150506001900390600052602060002001600090919091909150555050565b6002602052816000526040600020602052806000526040600020600091509150508060000154908060010154908060020154908060030154905084565b6060600060018054905067ffffffffffffffff8111156102ec576102eb610d10565b5b60405190808252806020026020018201604052801561031a5781602001602082028036833780820191505090505b509050600060018054905067ffffffffffffffff81111561033e5761033d610d10565b5b60405190808252806020026020018201604052801561036c5781602001602082028036833780820191505090505b50905060008061037f8787868686610b88565b9050801561043a5760008267ffffffffffffffff8111156103a3576103a2610d10565b5b6040519080825280602002602001820160405280156103d15781602001602082028036833780820191505090505b50905060005b8381101561042c578481815181106103f2576103f16113fb565b5b602002602001015182828151811061040d5761040c6113fb565b5b602002602001018181525050808061042490611459565b9150506103d7565b50809550505050505061048b565b600067ffffffffffffffff81111561045557610454610d10565b5b6040519080825280602002602001820160405280156104835781602001602082028036833780820191505090505b509450505050505b92915050565b60006020528060005260406000206000915090508060000180546104b49061114c565b80601f01602080910402602001604051908101604052809291908181526020018280546104e09061114c565b801561052d5780601f106105025761010080835404028352916020019161052d565b820191906000526020600020905b81548152906001019060200180831161051057829003601f168201915b5050505050908060010160009054906101000a900460ff16905082565b6003602052816000526040600020818154811061056657600080fd5b90600052602060002001600091509150505481565b600061058783836102c9565b905060008151036105cd576040517f08c379a00000000000000000000000000000000000000000000000000000000081526004016105c4906114ed565b60405180910390fd5b60005b600182516105de919061150d565b8110156106a3576001600260008484815181106105fe576105fd6113fb565b5b602002602001015181526020019081526020016000206000846001856106249190611541565b81518110610635576106346113fb565b5b60200260200101518152602001908152602001600020600201541015610690576040517f08c379a0000000000000000000000000000000000000000000000000000000008152600401610687906115c1565b60405180910390fd5b808061069b90611459565b9150506105d0565b5060005b600182516106b5919061150d565b8110156107cd576001600260008484815181106106d5576106d46113fb565b5b602002602001015181526020019081526020016000206000846001856106fb9190611541565b8151811061070c5761070b6113fb565b5b602002602001015181526020019081526020016000206002016000828254610734919061150d565b92505081905550600160026000848481518110610754576107536113fb565b5b6020026020010151815260200190815260200160002060008460018561077a9190611541565b8151811061078b5761078a6113fb565b5b6020026020010151815260200190815260200160002060030160008282546107b39190611541565b9250508190555080806107c590611459565b9150506106a7565b50505050565b60405180608001604052808381526020018281526020016000815260200160008152506002600084815260200190815260200160002060008381526020019081526020016000206000820151816000015560208201518160010155604082015181600201556060820151816003015590505060036000838152602001908152602001600020819080600181540180825580915050600190039060005260206000200160009091909190915055600360008281526020019081526020016000208290806001815401808255809150506001900390600052602060002001600090919091909150555050565b60005b60036000848152602001908152602001600020805490508110156109ea5781600360008581526020019081526020016000208281548110610904576109036113fb565b5b9060005260206000200154036109d757600360008481526020019081526020016000206001600360008681526020019081526020016000208054905061094a919061150d565b8154811061095b5761095a6113fb565b5b906000526020600020015460036000858152602001908152602001600020828154811061098b5761098a6113fb565b5b9060005260206000200181905550600360008481526020019081526020016000208054806109bc576109bb6115e1565b5b600190038181906000526020600020016000905590556109ea565b80806109e290611459565b9150506108c0565b5060005b6003600083815260200190815260200160002080549050811015610b185782600360008481526020019081526020016000208281548110610a3257610a316113fb565b5b906000526020600020015403610b05576003600083815260200190815260200160002060016003600085815260200190815260200160002080549050610a78919061150d565b81548110610a8957610a886113fb565b5b9060005260206000200154600360008481526020019081526020016000208281548110610ab957610ab86113fb565b5b906000526020600020018190555060036000838152602001908152602001600020805480610aea57610ae96115e1565b5b60019003818190600052602060002001600090559055610b18565b8080610b1090611459565b9150506109ee565b5060026000838152602001908152602001600020600082815260200190815260200160002060008082016000905560018201600090556002820160009055600382016000905550505050565b60018181548110610b7457600080fd5b906000526020600020016000915090505481565b60006001848781518110610b9f57610b9e6113fb565b5b60200260200101901515908115158152505085838381518110610bc557610bc46113fb565b5b6020026020010181815250508180610bdc90611459565b925050848603610bef5760019050610ca2565b60005b6003600088815260200190815260200160002080549050811015610c9c576000600360008981526020019081526020016000208281548110610c3757610c366113fb565b5b90600052602060002001549050858181518110610c5757610c566113fb565b5b6020026020010151610c88576000610c728289898989610b88565b90508015610c865760019350505050610ca2565b505b508080610c9490611459565b915050610bf2565b50600090505b95945050505050565b6000604051905090565b600080fd5b600080fd5b6000819050919050565b610cd281610cbf565b8114610cdd57600080fd5b50565b600081359050610cef81610cc9565b92915050565b600080fd5b600080fd5b6000601f19601f8301169050919050565b7f4e487b7100000000000000000000000000000000000000000000000000000000600052604160045260246000fd5b610d4882610cff565b810181811067ffffffffffffffff82111715610d6757610d66610d10565b5b80604052505050565b6000610d7a610cab565b9050610d868282610d3f565b919050565b600067ffffffffffffffff821115610da657610da5610d10565b5b610daf82610cff565b9050602081019050919050565b82818337600083830152505050565b6000610dde610dd984610d8b565b610d70565b905082815260208101848484011115610dfa57610df9610cfa565b5b610e05848285610dbc565b509392505050565b600082601f830112610e2257610e21610cf5565b5b8135610e32848260208601610dcb565b91505092915050565b60008060408385031215610e5257610e51610cb5565b5b6000610e6085828601610ce0565b925050602083013567ffffffffffffffff811115610e8157610e80610cba565b5b610e8d85828601610e0d565b9150509250929050565b60008060408385031215610eae57610ead610cb5565b5b6000610ebc85828601610ce0565b9250506020610ecd85828601610ce0565b9150509250929050565b610ee081610cbf565b82525050565b6000608082019050610efb6000830187610ed7565b610f086020830186610ed7565b610f156040830185610ed7565b610f226060830184610ed7565b95945050505050565b600081519050919050565b600082825260208201905092915050565b6000819050602082019050919050565b610f6081610cbf565b82525050565b6000610f728383610f57565b60208301905092915050565b6000602082019050919050565b6000610f9682610f2b565b610fa08185610f36565b9350610fab83610f47565b8060005b83811015610fdc578151610fc38882610f66565b9750610fce83610f7e565b925050600181019050610faf565b5085935050505092915050565b600060208201905081810360008301526110038184610f8b565b905092915050565b60006020828403121561102157611020610cb5565b5b600061102f84828501610ce0565b91505092915050565b600081519050919050565b600082825260208201905092915050565b60005b83811015611072578082015181840152602081019050611057565b60008484015250505050565b600061108982611038565b6110938185611043565b93506110a3818560208601611054565b6110ac81610cff565b840191505092915050565b60008115159050919050565b6110cc816110b7565b82525050565b600060408201905081810360008301526110ec818561107e565b90506110fb60208301846110c3565b9392505050565b60006020820190506111176000830184610ed7565b92915050565b7f4e487b7100000000000000000000000000000000000000000000000000000000600052602260045260246000fd5b6000600282049050600182168061116457607f821691505b6020821081036111775761117661111d565b5b50919050565b60008190508160005260206000209050919050565b60006020601f8301049050919050565b600082821b905092915050565b6000600883026111df7fffffffffffffffffffffffffffffffffffffffffffffffffffffffffffffffff826111a2565b6111e986836111a2565b95508019841693508086168417925050509392505050565b6000819050919050565b600061122661122161121c84610cbf565b611201565b610cbf565b9050919050565b6000819050919050565b6112408361120b565b61125461124c8261122d565b8484546111af565b825550505050565b600090565b61126961125c565b611274818484611237565b505050565b5b818110156112985761128d600082611261565b60018101905061127a565b5050565b601f8211156112dd576112ae8161117d565b6112b784611192565b810160208510156112c6578190505b6112da6112d285611192565b830182611279565b50505b505050565b600082821c905092915050565b6000611300600019846008026112e2565b1980831691505092915050565b600061131983836112ef565b9150826002028217905092915050565b61133282611038565b67ffffffffffffffff81111561134b5761134a610d10565b5b611355825461114c565b61136082828561129c565b600060209050601f8311600181146113935760008415611381578287015190505b61138b858261130d565b8655506113f3565b601f1984166113a18661117d565b60005b828110156113c9578489015182556001820191506020850194506020810190506113a4565b868310156113e657848901516113e2601f8916826112ef565b8355505b6001600288020188555050505b505050505050565b7f4e487b7100000000000000000000000000000000000000000000000000000000600052603260045260246000fd5b7f4e487b7100000000000000000000000000000000000000000000000000000000600052601160045260246000fd5b600061146482610cbf565b91507fffffffffffffffffffffffffffffffffffffffffffffffffffffffffffffffff82036114965761149561142a565b5b600182019050919050565b7f4e6f207061746820657869737473000000000000000000000000000000000000600082015250565b60006114d7600e83611043565b91506114e2826114a1565b602082019050919050565b60006020820190508181036000830152611506816114ca565b9050919050565b600061151882610cbf565b915061152383610cbf565b925082820390508181111561153b5761153a61142a565b5b92915050565b600061154c82610cbf565b915061155783610cbf565b925082820190508082111561156f5761156e61142a565b5b92915050565b7f496e73756666696369656e742062616c616e6365000000000000000000000000600082015250565b60006115ab601483611043565b91506115b682611575565b602082019050919050565b600060208201905081810360008301526115da8161159e565b9050919050565b7f4e487b7100000000000000000000000000000000000000000000000000000000600052603160045260246000fdfea2646970667358221220fd7bd15606ad0d53e9ccb32fa637e5cb980b47fae2984e0b1be8d39c4285baf364736f6c63430008130033",
  "immutableReferences": {},
  "source": "// SPDX-License-Identifier: MIT\npragma solidity >=0.4.22 <0.9.0;\n\ncontract Payment {\n\n  /* Function registerUser()\n  @param user_id: user id\n  @param user_name: user name\n  Register user and add to list of available users to transact\n  */\n  struct User {\n    string name;\n    bool exists;\n  }\n\n  mapping(uint256 => User) public users;\n  uint256[] public userIDs;\n\n  function registerUser(uint256 user_id, string memory user_name) public {\n    users[user_id] = User(user_name, true);\n    userIDs.push(user_id);\n  }\n\n  /* Function createAcc()\n  @param user_id_1: user id of first user\n  @param user_id_2: user id of second user\n  Create a joint account between two users and keep track of individual contributions\n  */\n  struct Account {\n    uint256 user_id_1;\n    uint256 user_id_2;\n    uint256 balance_1;\n    uint256 balance_2;\n  }\n\n  //mapping from pair of user ids to account, and adjacency list\n  mapping(uint256 => mapping(uint256 => Account)) public accounts;\n  mapping(uint256 => uint256[]) public adjList;\n\n  function createAcc(uint256 user_id_1, uint256 user_id_2) public {\n    // Create a new account and add to the mapping and account IDs list\n    accounts[user_id_1][user_id_2] = Account(user_id_1, user_id_2, 0, 0);\n    // Add the two users to each other's adjacency list\n    adjList[user_id_1].push(user_id_2);\n    adjList[user_id_2].push(user_id_1);\n  }\n\n  // Depth-first search starting from a given node\n  function dfs(uint256 start, uint256 end) public view returns (uint256[] memory) {\n      bool[] memory visited = new bool[](userIDs.length);\n      uint256[] memory path = new uint256[](userIDs.length);\n      uint256 pathIndex = 0;\n      bool pathFound = dfsHelper(start, end, visited, path, pathIndex);\n      if (pathFound) {\n          uint256[] memory result = new uint256[](pathIndex);\n          for (uint256 i = 0; i < pathIndex; i++) {\n              result[i] = path[i];\n          }\n          return result;\n      } else {\n          return new uint256[](0);\n      }\n  }\n\n  // Recursive helper function for DFS\n  function dfsHelper(uint256 node, uint256 end, bool[] memory visited, uint256[] memory path, uint256 pathIndex) private view returns (bool) {\n      visited[node] = true;\n      path[pathIndex] = node;\n      pathIndex++;\n      if (node == end) {\n          return true;\n      }\n      for (uint256 i = 0; i < adjList[node].length; i++) {\n          uint256 neighbor = adjList[node][i];\n          if (!visited[neighbor]) {\n              bool pathFound = dfsHelper(neighbor, end, visited, path, pathIndex);\n              if (pathFound) {\n                  return true;\n              }\n          }\n      }\n      return false;\n  }\n\n  /* Function sendAmount()\n  @param user_id_1: user id of sender\n  @param user_id_2: user id of receiver\n  Transfer the amount from sender to receiver\n  Default amount is 1\n  If user doesnt have sufficient balance, reject transaction\n  Check balance of all users on path before transferring amount\n  Use DFS to find the shortest path between the two users\n  */\n\n  function sendAmount(uint256 user_id_1, uint256 user_id_2) public {\n    // Find the shortest path between the two users\n    uint256[] memory path = dfs(user_id_1, user_id_2);\n    // Check if the path exists\n    require(path.length != 0, \"No path exists\");\n    // Check if the users on the path have sufficient balance\n    for (uint256 i = 0; i < path.length - 1; i++) {\n      require(accounts[path[i]][path[i + 1]].balance_1 >= 1, \"Insufficient balance\");\n    }\n    // Transfer the amount from sender to receiver via the path\n    for (uint256 i = 0; i < path.length - 1; i++) {\n      accounts[path[i]][path[i + 1]].balance_1 -= 1;\n      accounts[path[i]][path[i + 1]].balance_2 += 1;\n    }\n  }\n\n  /* Function closeAcc()\n  @param user_id_1: user id of first user\n  @param user_id_2: user id of second user\n  Close the joint account between two users\n  */\n\n  function closeAcc(uint256 user_id_1, uint256 user_id_2) public {\n    // Remove the two users from each other's adjacency list\n    for (uint256 i = 0; i < adjList[user_id_1].length; i++) {\n      if (adjList[user_id_1][i] == user_id_2) {\n        adjList[user_id_1][i] = adjList[user_id_1][adjList[user_id_1].length - 1];\n        adjList[user_id_1].pop();\n        break;\n      }\n    }\n    for (uint256 i = 0; i < adjList[user_id_2].length; i++) {\n      if (adjList[user_id_2][i] == user_id_1) {\n        adjList[user_id_2][i] = adjList[user_id_2][adjList[user_id_2].length - 1];\n        adjList[user_id_2].pop();\n        break;\n      }\n    }\n    // Remove the account from the mapping\n    delete accounts[user_id_1][user_id_2];\n  }\n}\n\n",
  "sourcePath": "C:\\Users\\ojasw\\Desktop\\hw3\\contracts\\Payment.sol",
  "compiler": {
    "name": "solc",
    "version": "0.8.19+commit.7dd6d404.Emscripten.clang"
  },
  "schemaVersion": "3.4.13",
  "updatedAt": "2023-04-04T18:45:20.228Z",
  "devdoc": {
    "kind": "dev",
    "methods": {},
    "version": 1
  },
  "userdoc": {
    "kind": "user",
    "methods": {},
    "version": 1
  }
}